:020000040800F2
:10000000009C0020590200086102000863020008F9
:10001000650200086702000869020008000000008D
:10002000000000000000000000000000A101000826
:100030006D02000800000000F5010008ED13000843
:1000400073020008730200087302000873020008BC
:1000500073020008730200087302000873020008AC
:10006000730200087302000873020008730200089C
:10007000730200087302000873020008730200088C
:10008000730200087302000873020008730200087C
:10009000730200087302000873020008730200086C
:1000A000730200087302000873020008730200085C
:1000B000730200087302000873020008730200084C
:1000C000730200087302000873020008730200083C
:1000D0007302000851170008851700087302000812
:1000E000730200087302000873020008730200081C
:1000F000730200087302000873020008730200080C
:1001000073020008730200087302000873020008FB
:1001100073020008730200087302000873020008EB
:1001200073020008730200087302000873020008DB
:1001300073020008730200087302000873020008CB
:1001400073020008730200087302000873020008BB
:1001500073020008730200087302000873020008AB
:10016000730200087302000873020008730200089B
:10017000730200087302000873020008730200088B
:100180007302000873020008DFF810D000F0A2F834
:1001900000480047991B0008AFF30080009C002036
:1001A0002A4B19680868B0E8F04F80F30988BFF35C
:1001B0006F8F4FF0000080F311887047000000003F
:1001C00006480068006880F3088862B661B6BFF32D
:1001D0004F8FBFF36F8F00DF00BF00BF08ED00E05F
:1001E000DFF80C00016841F470010160704700BF46
:1001F00088ED00E0EFF30980BFF36F8F134B1A68AF
:100200001EF0100F08BF20ED108A20E9F04F10609B
:1002100008B44FF0BF0080F31188BFF34F8FBFF3D6
:100220006F8F02F027FA4FF0000080F3118808BCAE
:1002300019680868B0E8F04F1EF0100F08BFB0EC66
:10024000108A80F30988BFF36F8F70471400002075
:10025000EFF30580704700000648804706480047D6
:10026000FEE7FEE7FEE7FEE7FEE7FEE7FEE7FEE766
:10027000FEE7FEE72114000889010008D2B201E080
:1002800000F8012B491EFBD270470022F6E710B59B
:1002900013460A4604461946FFF7F0FF204610BDF4
:1002A00030B505462A460B4612F8010B13F8014BF0
:1002B00008B1A042F8D01CB1002802D06D1CF1E7B3
:1002C000284630BD421C10F8011B0029FBD1801AC2
:1002D00070470000064C074D06E0E06840F001035F
:1002E00094E8070098471034AC42F6D3FFF750FF6C
:1002F000A44C0008C44C00081CB50121022000F0E9
:100300005BFF01208DF8040000208DF806004FF4FB
:100310008060009001208DF8070003208DF8050013
:100320006946044800F022F84FF48061014800F06B
:1003300088F81CBD000402401CB50121084600F0ED
:100340003BFF0820009001208DF8040000208DF86C
:10035000060001208DF8070003208DF8050069468E
:10036000014800F003F81CBD00000240F0B50A4649
:1003700000210023002400BF3DE0012505FA01F320
:10038000156805EA03049C4234D105684F00032632
:10039000BE40B543056015794E00B540066835434B
:1003A00005601579012D02D01579022D16D18568C9
:1003B0004F000326BE40B543856055794E00B540D9
:1003C000866835438560456801268E40B5434560A3
:1003D000456896798E40B6B235434560C5684F0092
:1003E0000326BE40B543C560D5794E00B540C6680A
:1003F0003543C560491C1029BFD3F0BDF0B50023BB
:1004000000244D07ED0E02FA05F3CE1000F1200591
:1004100055F826504E07F70E0F26BE40B543CF10B5
:1004200000F1200646F82750CE1000F1200555F8BF
:10043000265045EA0304CE1000F1200545F8264079
:10044000F0BD41837047000010B5024610787F2848
:1004500017DD002110E010780B4B5B5C98420AD14D
:100460005378094C481C205C834204D10B4601EBB5
:10047000D370401010BD891C5729ECD34FF0FF30CA
:10048000F8E76FF00100F5E7E443000810B50B480A
:10049000006840F48040094908600020084908606D
:1004A00001200849C1F8980200F00EF80020044924
:1004B000091F086000F008F810BD000000040240A9
:1004C0009C8240420080404210B5022001F0C8FAF0
:1004D00010BD00001CB50121022000F06DFE0120BE
:1004E0008DF8040000208DF80600C0200090012047
:1004F0008DF8070069460548FFF738FF01200449D9
:1005000008600449C1F89C021CBD000000040240C0
:10051000988240420080404270B504460F4800680F
:1005200040F480400D490860002513E0E0090C49C3
:1005300008606006040EFFF7C7FF01200949C1F8F3
:100540009802FFF7C1FF00200549091F0860FFF767
:10055000BBFF6D1C082DE9DB70BD000000040240EC
:100560009C8240420080404210B50D48006840F433
:1005700080400B49086001200A4908600A49C1F817
:100580009C02FFF7A1FF00200649091D0860FFF744
:100590009BFF00200449C1F89802FFF795FF10BDAA
:1005A00000040240988240420080404210B50B484F
:1005B000006840F48040094908600120084908604B
:1005C00000200849C1F89C02FFF77EFF0120044982
:1005D000091D0860FFF778FF10BD0000000402400D
:1005E00098824042008040421CB50121102000F05A
:1005F000E3FD0121042000F0DFFD00208DF8040060
:100600007020009001208DF8070069460848FFF728
:10061000ADFE00208DF804004FF400500090012042
:100620008DF8070069460348FFF7A0FE1CBD0000D7
:1006300000100240000802401CB50121102000F00B
:10064000BBFD01208DF8040000208DF806004FF45A
:10065000E060009001208DF8050069460648FFF72C
:1006600085FE0120054908600549C1F8A402034937
:10067000083108601CBD000000100240A002424288
:100680000000424270B5002100230F22C4781CB341
:10069000174C246804F4E064C4F5E064C4F3072153
:1006A000C1F10404E3B20A4144789C40E1B2847889
:1006B000144021430C07210E0E4C05786155047837
:1006C00004F01F050124AC4005786D11AD0005F163
:1006D000E025C5F8004109E0047804F01F05012475
:1006E000AC40054D0678761145F8264070BD0000F7
:1006F0000CED00E000E400E080E100E0024901438D
:10070000024A1160704700000000FA050CED00E09D
:1007100070B500240CE0002506E00020074901EB3D
:10072000C5010855681CC5B2802DF6DB601CC4B23B
:10073000082CF0DB00F020F970BD00009C000020C8
:10074000F0B514460B46CF1701EB5777C7F3C70236
:10075000CF1701EB5777FF10A1EBC707FEB20123BC
:10076000B340DDB24CB1134B03EBC0039B5C2B4396
:10077000104F07EBC007BB541AE00E4B03EBC0034E
:100780009B5CDB430B4F07EBC007BB54094B03EBF0
:10079000C0039B5C2B43074F07EBC007BB54054BC3
:1007A00003EBC0039B5CDB43024F07EBC007BB546A
:1007B000F0BD00009C00002010B50021AE2000F02C
:1007C00062FA0021084600F05EFA0021102000F0D5
:1007D0005AFA0021402000F056FA0021812000F052
:1007E00052FA0021CF2000F04EFA0021A12000F0A3
:1007F0004AFA0021C82000F046FA0021A62000F0A5
:1008000042FA0021A82000F03EFA00213F2000F02B
:100810003AFA0021D32000F036FA0021084600F011
:1008200032FA0021D52000F02EFA0021802000F0BD
:100830002AFA0021D92000F026FA0021F12000F048
:1008400022FA0021DA2000F01EFA0021122000F026
:100850001AFA0021DB2000F016FA0021402000F0F7
:1008600012FA0021202000F00EFA0021022000F0F0
:100870000AFA00218D2000F006FA0021142000F071
:1008800002FA0021A42000F0FEF90021A62000F0C9
:10089000FAF9FFF73DFF0021AF2000F0F4F910BD99
:1008A00010B51148006838B9282001F0CCF801F0E3
:1008B00053F9282001F0C7F80B48001D006838B92B
:1008C000282001F0C0F801F0E5F8282001F0BBF87D
:1008D0000648006838B9282001F0B5F800F0C0FAE1
:1008E000282001F0B0F810BD10024242340241420B
:1008F00000200CE0002106E00022064B03EBC103C0
:100900001A544A1CD1B28029F6DB421CD0B2082806
:10091000F0DB70479C00002030B5024600200EE05E
:10092000002108E00023074C04EBC10400EB420562
:1009300063554B1CD9B21E29F4DB431CD8B20228E4
:10094000EEDB30BD9C00002030B5024600200EE0FA
:100950001E2108E00023074C04EBC10400EB420514
:1009600063554B1CD9B25029F4DB431CD8B2022882
:10097000EEDB30BD9C00002070B500242BE004F1BC
:10098000B001C8B2002100F07EF90021084600F055
:100990007AF90021102000F076F9FFF7E5FD7820C4
:1009A000FFF7BAFDFFF772FD4020FFF7B5FDFFF737
:1009B0006DFD002509E0094901EBC501085DFFF760
:1009C000ABFDFFF763FD681CC5B2802DF3DBFFF7BD
:1009D000EDFD601CC4B2082CD1DB70BD9C00002072
:1009E0002DE9FE4F0746884692461C460197CDF8F2
:1009F0000080082C02D14FF006091FE02046E317C3
:100A000004EB5373DB1021464FEAE47C04EB5C7C7F
:100A10004FEAEC0CA4EBCC0CBCF1000F02D04FF071
:100A2000010C01E04FF0000C6344224604EBD27C41
:100A30004FEA6C0C03FB0CF303F0FF09AAF1200052
:100A4000C6B200255EE0082C07D106EB46002F4910
:100A500001EB400010F805B01DE00C2C07D106EBAF
:100A600046002B4901EB800010F805B013E0102C74
:100A700005D1284800EB061010F805B00BE0182C43
:100A800007D106EBC600244901EB800010F805B041
:100A900001E0BDE8FE8F002002901CE00BF0010099
:100AA00028B1414638460C9AFFF74AFE09E00C98F7
:100AB00008B9012000E00020024641463846FFF711
:100AC0003FFE4FEA6B0B08F1010000F0FF080298AF
:100AD000401CC0B2029002980828DFDB781CC7B225
:100AE000082C0BD004EBD4714A100199791A8A4270
:100AF00004D1019F00980830C0B20090DDF800805A
:100B0000681CC5B24D459EDB00BFC2E7FC2900084A
:100B1000242C000898300008883600082DE9FC4F86
:100B20000746884616461C46BB46CDF8048020463C
:100B3000E21704EB5272D2102146E31704EB537311
:100B4000DB10A4EBC3030BB1012300E000231A4424
:100B5000624392B20092002555E0102C05D12C483A
:100B600000EB461010F805A01BE0182C07D106EB8F
:100B7000C600284901EBC00010F805A011E0202CA8
:100B800005D1254800EBC61010F805A009E0402C5F
:100B900005D1224800EB462010F805A001E0BDE891
:100BA000FC8F4FF000091CE00AF0010028B141461B
:100BB00038460B9AFFF7C4FD09E00B9808B90120ED
:100BC00000E00020024641463846FFF7B9FD4FEAF3
:100BD0006A0A08F1010000F0FF0809F1010000F0C5
:100BE000FF09B9F1080FDFDB781CC7B2A7EB0B00D8
:100BF000A04204D15F4601980830C0B20190DDF8F0
:100C00000480681C85B200988542A6DB00BFC6E759
:100C10003B440008DB490008234A0008A34A0008B7
:100C20002DE9F84F8046894614461D46DDF828A078
:100C30004646CB46002721E02046FFF705FC074645
:100C4000002F0ADBFAB22B4659463046CDF800A0F9
:100C5000FFF764FF7019C6B20FE0B81C68B9CDF891
:100C600000A022782B4659463046FFF7B9FE2846A9
:100C700005EBD07106EB6101CEB2641C2078002830
:100C8000DAD1BDE8F88F70B505460C46FFF76CFC6D
:100C90007820FFF741FCFFF7F9FB1CB14020FFF77C
:100CA0003BFC02E00020FFF737FCFFF7EFFB284694
:100CB000FFF732FCFFF7EAFBFFF778FC70BD00009E
:100CC00010B50648006838B9282000F0BCFE00F0D6
:100CD000C7F8282000F0B7FE10BD000034024142E2
:100CE00008B53C480068002871D1642000F0ABFED4
:100CF0003948006830B1102808D020280AD03028A0
:100D000060D133E00120354908605CE000203349C0
:100D1000086058E02F488C30006898B901202D49B0
:100D20008C3108602C4909680809FFF70DFE012085
:100D300010232BA2202100901E20FFF771FFFFF748
:100D40001BFE12E0002023498C310860224909680B
:100D50000809FFF7F9FD0120102324A220210090AB
:100D60001E20FFF75DFFFFF707FE2CE019489030CB
:100D7000006898B901201749903108601649096840
:100D80000809FFF7E1FD012010231BA2302100908C
:100D90001E20FFF745FFFFF7EFFD12E000200D4991
:100DA000903108600C4909680809FFF7CDFD012062
:100DB000102314A2302100901E20FFF731FFFFF70F
:100DC000DBFD00E000BF00BF642000F03CFEFFF749
:100DD00067FD08BD180242420C00002010000020F0
:100DE000B4F2BFAAB5C6B6FE00000000B9D8B1D5AE
:100DF000B5C6B6FE00000000B4F2BFAAB5C6C8FD75
:100E000000000000B9D8B1D5B5C6C8FD000000008B
:100E100010B51248006820B900F09EFE282000F0AE
:100E200012FE0E48001D006850B9282000F00BFE8D
:100E300000F030FE282000F006FE282000F003FE1F
:100E400006480830006838B9282000F0FCFD00F0A2
:100E500043FE282000F0F7FD10BD000010024242C2
:100E600010B5002004490860FFF742FD0020034947
:100E7000087000F063F810BD0C000020080000208E
:100E800008B525480068002842D1642000F0DBFD49
:100E90002248006830B110282CD020282DD03028CE
:100EA00031D12DE01E4800F039FB88B901F018F966
:100EB0001A4909680809FFF747FD0020102319A205
:100EC000014600901E20FFF7ABFEFFF755FD10E036
:100ED00001F01EF9114909680809FFF735FD0120E5
:100EE000102313A2002100901E20FFF799FEFFF7A8
:100EF00043FD09E001F0F4F806E001F0F9F803E041
:100F000001F0FEF800E000BF00BF642000F09BFD90
:100F1000FFF7C6FC08BD0000180242420C0000208A
:100F200000180040B9D8B1D5B7E7C9C80000000023
:100F3000B4F2BFAAB7E7C9C80000000008B5012095
:100F4000102320A2002100901E20FFF769FE01203F
:100F500010231FA2194600901E20FFF761FE0120FA
:100F600010231EA2202100901E20FFF759FE012011
:100F700010231DA2302100901E20FFF751FE0120FA
:100F800010231CA2052100906E20FFF749FE0120CE
:100F9000102319A2162100906E20FFF741FE0120B8
:100FA000102316A2252100906E20FFF739FE0120A4
:100FB00010232A22002100900A20FFF711FDFFF7DD
:100FC000DBFC08BDD4B6B3CCCFB5CDB30000000078
:100FD000B7E7C9C8CFB5CDB300000000B5C6B9E2C8
:100FE000CFB5CDB300000000B8D0D6AACFB5CDB3F1
:100FF00000000000D6F70000B2CB0000B5A500004D
:1010000008B50120102314A2002100901E20FFF734
:1010100007FE0120102313A2194600901E20FFF79F
:10102000FFFD0120102312A2202100901E20FFF7B7
:10103000F7FD0120102311A2302100901E20FFF7A0
:10104000EFFD012010232A22002100900A20FFF743
:10105000C7FCFFF791FC08BDBAF4CEFCB5C6BFAA29
:1010600000000000BAF4CEFCB5C6B9D800000000FC
:10107000B4F2BFAAB5C6B6FE00000000B4F2BFAA23
:10108000B5C6C8FD0000000008B5012010232A22C3
:10109000002100900A20FFF7A3FCFFF76DFC08BDBC
:1010A00008B50120102314A2002100901E20FFF794
:1010B000B7FD0120102313A2194600901E20FFF750
:1010C000AFFD0120102312A2202100901E20FFF767
:1010D000A7FD0120102311A2302100901E20FFF750
:1010E0009FFD012010232A22002100900A20FFF7F3
:1010F00077FCFFF741FC08BDB4F2BFAAB7E7C9C847
:1011000000000000D2BBB5B5B6AFC1A6000000001C
:10111000B6FEB5B2B6AFC1A600000000C8FDB5B2BC
:10112000B6AFC1A60000000008B50120102314A22C
:10113000002100901E20FFF773FD0120102313A251
:10114000194600901E20FFF76BFD0120102312A20C
:10115000202100901E20FFF763FD0120102311A223
:10116000302100901E20FFF75BFD012010232A2272
:10117000002100900A20FFF733FCFFF7FDFB08BDBC
:10118000C1ACBDD35769466900000000B6CFBFAA05
:101190005769466900000000C1ACBDD3B7FECEF16F
:1011A000C6F70000B6CFBFAAB7FECEF1C6F7000063
:1011B00010B5FFF775FB10BD29B1064A126802434E
:1011C000044B1A6004E0034A12688243014B1A6020
:1011D000704700003038024029B1064A12680243C5
:1011E000044B1A6004E0034A12688243014B1A6000
:1011F000704700004038024029B1064A1268024395
:10120000044B1A6004E0034A12688243014B1A60DF
:101210007047000044380240F0B50021002200244D
:10122000022500260223324F3F6807F00C0121B14E
:10123000042905D0082937D105E02E4F076036E094
:101240002D4F076033E02A4F3F1F3F68C7F380569A
:10125000274F3F1F3F6807F03F036EB1264FB7FB94
:10126000F3F7DFF88CC0ACF1040CDCF800C0CCF371
:10127000881C07FB0CF40CE01E4FB7FBF3F7DFF8FC
:1012800070C0ACF1040CDCF800C0CCF3881C07FB88
:101290000CF4174F3F1F3F68C7F301477F1C7D00C9
:1012A000B4FBF5F7076002E0124F076000BF00BF14
:1012B0000F4F3F6807F0F0010909104F7A5C07688B
:1012C000D74047600A4F3F6807F4E051890A0B4F47
:1012D0007A5C4768D7408760054F3F6807F46041F4
:1012E000490B064F7A5C4768D740C760F0BD0000E5
:1012F000083802400024F40000127A006C0000203C
:101300000CB50020019000903448006840F4803013
:101310003249086000BF3148006800F40030009096
:101320000198401C0190009818B90198B0F5A04FA1
:10133000F1D12A48006800F4003010B1012000907B
:1013400001E0002000900098012846D12348403059
:10135000006840F080502149403108602048006812
:1013600040F440401E4908601C48083000681B4992
:10137000083108600846006840F4004008600846EC
:10138000006840F4A05008601648091F0860081F54
:10139000006840F08070091F086000BF0F480068B7
:1013A00000F000700028F9D040F205700E49086086
:1013B0000A480830006820F0030008490831086036
:1013C0000846006840F00200086000BF034808308B
:1013D000006800F00C000828F8D10CBD003802406D
:1013E0000070004008544007003C024010B500BFA8
:1013F000BF2080F31188BFF34F8FBFF36F8F00BF03
:1014000001F0FAF918B14FF080500449086000BFAC
:10141000002080F3118800BF10BD000004ED00E043
:1014200010B51548006840F470001349086013486F
:10143000006840F001001149086000200F490831A0
:1014400008600E4800680E4908400C4908600D48C5
:10145000091D0860081F006820F48020091F08602B
:10146000002006490C310860FFF74AFF4FF000608A
:1014700001498039086010BD88ED00E00038024065
:10148000FFFFF6FE1030002410B541F2883104A0B1
:1014900001F046F941F2883105A001F041F910BD93
:1014A00041542B4349504D55583D310D0A00000021
:1014B00041542B4349505345525645523D312C31EE
:1014C000303030300D0A00000EB501212020FFF72A
:1014D00083FE0020ADF80800ADF802004FF6FE7064
:1014E00001905320ADF8000000208DF80A006946F5
:1014F000034800F01BF80121014800F003F80EBD7D
:101500000014004021B1028842F00102028004E090
:1015100002884FF6FE731A40028070470146886BBE
:101520007047416370478163704700000022028862
:10153000184B98420ED0184B98420BD0B0F1804F08
:1015400008D0164B984205D0154B984202D0154B47
:10155000984204D14FF68F731A404B881A43124BAE
:10156000984207D0114B984204D04FF6FF431A40DF
:101570000B891A4302804B68C3620B880385054BB5
:10158000984202D0044B984201D18B7A0386012302
:1015900083827047000001400004014000040040C5
:1015A00000080040000C0040001000400014004003
:1015B00008B501F01BF9009024E00A21684600F00C
:1015C0007DFF1148007810B9FFF722FC1AE00E48A1
:1015D0000078012802D1FFF7EBFD13E00A480078FC
:1015E000022802D1FFF74CFC0CE0074800780328E2
:1015F00002D1FFF775FB05E003480078042801D10C
:10160000FFF75EFBD9E700000800002008B501F0F5
:10161000EDF8009003E00A21684600F04FFFFAE77A
:101620001CB5044600F0E0FE0020022103468022A3
:10163000CDE9001014A1184801F0A8F800200221FB
:1016400003468022CDE9001014A1184801F09EF84D
:101650000020022103468022CDE9001014A1184881
:1016600001F094F80020022103468022CDE9001009
:1016700014A1184801F08AF81748006800F058FFD4
:1016800000F0C4FE1CBD00004F4C4544B2CBB5A5D4
:10169000C8CECEF100000000B115000857694669B8
:1016A000CDA8D0C5C8CECEF1000000003917000883
:1016B000CEC2B6C8CAAAB6C8C8CECEF100000000D5
:1016C000DD160008B9E2C3F4B5E7D7E8C8CECEF11D
:1016D000000000000D1600080000002001F086F850
:1016E00024E013480068012819D1002407E00820ED
:1016F00000F0CAFE21460F48FFF713FF641C642C5C
:10170000F5D9002408E0082000F0BEFEC4F1640111
:101710000848FFF706FF641C642CF4D903E000219D
:101720000448FFF7FEFE642000F0AEFED9E700009B
:10173000100000200000014008B501F057F80090AB
:1017400004E00A21684600F0B9FE00BFF9E7000096
:1017500010B540F22551084800F07BF8012809D166
:10176000054800F02FF9054908700846017804483B
:1017700000F02DF910BD0000001001400400002011
:101780000044004010B540F22551144800F061F8C3
:10179000012822D1114800F015F9114908700846B6
:1017A0000178104800F013F90D4801780E4800F058
:1017B00017FD0E4800780D2806D1094800780A2840
:1017C00002D10120084908770548007807490870C8
:1017D00040F22551014800F021F810BD00440040BE
:1017E00005000020001001407C00002006000020C1
:1017F00010B5024600200BE000BF074B1B88C3F367
:101800008013002BF9D0135C034C241D2380401C53
:101810008842F1DB084610BD0044004010B50022AC
:10182000002340F66A14A14200D100BF0A1201242D
:101830009440A3B2DC43048010BD21B1828942F4FC
:101840000052828104E082894DF6FF731A40828142
:10185000704770B50246002400230025002040F6A2
:101860006A16B14200D100BFC1F3421501F01F0357
:10187000012606FA03F3012D02D19689334006E0D2
:10188000022D02D1168A334001E0968A33400C12B1
:10189000012606FA04F41688344013B10CB1012075
:1018A00000E0002070BDF0B50346002400260025AE
:1018B000002040F66A17B94200D100BF1846C1F3B4
:1018C000421401F01F06012707FA06F5012C01D189
:1018D0000C3004E0022C01D1103000E014301AB1B9
:1018E00007682F43076002E00768AF430760F0BD59
:1018F0002DE9FF4705460E460024A14600BFA0463D
:10190000B08900B100BF2C8A24F44054F08804430D
:101910002C82AC8941F20C608443B0883189084341
:10192000718908430443AC81AC8A24F44074B089C3
:101930000443AC826846FFF76FFC2048854202D022
:101940001F48854202D1DDF80C9001E0DDF80890D7
:10195000A88900F4004040B109EBC90000EB091070
:1019600031684900B0FBF1F707E009EBC90000EB73
:10197000091031688900B0FBF1F76420B7FBF0F083
:1019800004012009642101FB1078A88900F40040BB
:1019900040B1322000EBC800B0FBF1F000F00700CE
:1019A000044308E0322000EB08106421B0FBF1F0A2
:1019B00000F00F0004432C81BDE8FF8700100140B8
:1019C0000014014001468888C0F308007047C1F345
:1019D000080282807047000070B5B2B005460C4620
:1019E0001BE0641E012000F02EF80E48007F012845
:1019F00013D10026C8216846FEF747FCC822694675
:101A0000084800F0D7FB064629466846FEF748FC22
:101A100010B1002032B070BD00BF002CE1D1601EBB
:101A2000F8E700007C00002002E008C8121F08C18F
:101A3000002AFAD170477047002001E001C1121F4F
:101A4000002AFBD1704710B5044603E04FF47A70CA
:101A500000F006F8201EA4F10104F7D110BD00002B
:101A600010B501460A4B1A6850184FF6FE7398429B
:101A700007D900BF064B1B684FF6FE74A342F9D38B
:101A8000001B00BF024B1B688342FBD310BD00004C
:101A90002414004008B50F4909680809FEF73CFF07
:101AA0000C480068302803D100200A49086004E08F
:101AB0000848006810300749086001200090054878
:101AC000017810232A220A20FEF78AFFFEF754FF2E
:101AD00008BD00000C00002010B51D48006850B97A
:101AE00000201B490860FEF703FF01201949087018
:101AF000FFF71AFB2BE01648006810280AD10020D7
:101B000013490860FEF7F4FE022012490870FFF73F
:101B1000C7FA1CE00E48006820280AD100200C49B2
:101B20000860FEF7E5FE03200A490870FFF768FA2F
:101B30000DE007480068302809D1002004490860FA
:101B4000FEF7D6FE042003490870FFF79DFA10BD8A
:101B50000C0000200800002008B50E49096808099B
:101B6000FEF7DAFE0B48006818B930200949086012
:101B700004E0084800681038064908600120009019
:101B80000448017810232A220A20FEF729FFFEF7D5
:101B9000F3FE08BD0C0000201CB54FF4A060FEF75A
:101BA000ADFDFEF749FDFFF78FFCFEF7A5FB00F04A
:101BB0002DFBFEF7C1FBFEF717FDFEF78BFCFEF7D2
:101BC000FBFD00F023FB00F071FB00F083FDFFF74D
:101BD0005BFCFFF7B3F900200749087007480121B3
:101BE00000230A02CDE9001005A1074800F0CEFD50
:101BF00000F004FD00201CBD0800002000000020B3
:101C00007374617274000000211600082DE9F04120
:101C100005460E461C4807681C480068001D00F079
:101C200099FB50B91948006890F82C1001208840A1
:101C300017490968814316480160681C38B936B1F4
:101C400012480168091D134800F0C2FB1AE07C1914
:101C50000E4800684460BC4207D20C480168091D68
:101C60000D48006800F09AFB0CE008480168091D67
:101C70000A48006800F092FB09480068844201D2DB
:101C800007480460BDE8F08128000020140000200F
:101C90002C000020EC0700201C0000201800002071
:101CA0004400002010B5044600F09EFB2348006865
:101CB000401C224908602248006840B9204804605E
:101CC0000846006801280DD100F014F90AE01D480B
:101CD000006838B91A480068C06AE16A884201D8C9
:101CE0001748046018480068401C1749086094F8B9
:101CF0002C100120884015490968084313490860E1
:101D0000E16A01EB8101124A02EB8100211D00F022
:101D10005FFB00F07BFB0B48006868B10848006877
:101D2000C06AE16A884207D24FF0805009490860D2
:101D3000BFF34F8FBFF36F8F10BD00002400002052
:101D40001400002030000020400000202C00002063
:101D50001C05002004ED00E070B523E000F082FCDB
:101D60001348006808B9012000E00020054600F093
:101D7000D1FDBDB900F038FB0D48C068C468201D16
:101D800000F0E8FA0B480068401E0A4908600A485B
:101D90000068401E0849086000F038FB204600F04B
:101DA0000DF800BF044800680028D7D170BD0000BE
:101DB000D8070020240000202000002010B5044691
:101DC000206B00F033FB204600F030FB10BD00001C
:101DD00030B54FF41043174800F007042CB1C01D74
:101DE00020F00700134C041B1B1B0246124C226000
:101DF0000024114D6C60D018083820F007000F4CFB
:101E0000206000240D4D2D686C600C4D2D682C60F9
:101E10001146441A4C60094C24680C60084D4C680B
:101E20002C60084D4C682C604FF00044064D2C602F
:101E300030BD0000000800205000002058000020A5
:101E4000600000205C0000206400002000BFFFF75D
:101E500083FF064800680128F9D94FF080500449F3
:101E60000860BFF34F8FBFF36F8FF0E71C050020B2
:101E700004ED00E02DE9FF5F80460E469146DDE966
:101E80000E7A109CA9F10100216B01EB800B2BF065
:101E9000070B002507E0715D04F134004155705DCA
:101EA00000B902E06D1C102DF5D300BF00214320C6
:101EB0000155202F00D31F27E762201D00F06BFA89
:101EC00004F1180000F067FA2461C7F12000A06156
:101ED00064620020606484F8480041465846039AD2
:101EE00000F01EF92060BAF1000F01D0CAF80040DE
:101EF000BDE8FF9F10B5002407E004EB84010F4A02
:101F000002EB810000F03AFA641C202CF5D30C4857
:101F100000F034FA0B4800F031FA0B4800F02EFACA
:101F20000A4800F02BFA0A4800F028FA0448094948
:101F3000086004480849086010BD00001C05002026
:101F40009C070020B0070020C4070020D80700200D
:101F5000EC070020180000201C00002010B50146EE
:101F6000164800E0006803688B42FBD302464368D2
:101F700013448B4204D143684C68234443600146B8
:101F80000A464B6813440468A34211D10C4C036801
:101F90002468A34208D04B680468646823444B60FB
:101FA00003681B680B6005E0054B1B680B6001E0D4
:101FB00003680B60884200D0016010BD5000002013
:101FC000580000200A490968096809B9012100E0A0
:101FD000002121B14FF0FF31064A116006E00449AB
:101FE0000968C968C868034A416811607047000001
:101FF000180000204400002000BFBF2080F311889B
:10200000BFF34F8FBFF36F8F00BF00BFFEE700002D
:102010002DE9F04105464FF0000800F023FB2B4866
:10202000006808B9FFF7D4FE294800682840002856
:1020300047D145B1083505F0070020B105F007008C
:10204000C0F108000544002D3BD0224800688542BD
:1020500037D8214E3046046801E02646246860687F
:10206000A84202D220680028F7D1184800688442AC
:1020700027D0306800F10808206830606068401B95
:10208000102807D967196068401B7860656038467A
:10209000FFF764FF0F4960680968081A0D49086076
:1020A000084600680D490968884203D2094800685B
:1020B0000A490860064960680968084360600020B2
:1020C000206000F027FC4046BDE8F0815800002069
:1020D000640000205C000020500000206000002010
:1020E00010B50A210148FFF71EFA10BD0018004084
:1020F00010B528210148FFF716FA10BD001800405E
:1021000010B546210148FFF70EFA10BD0018004037
:1021100010B500210148FFF706FA10BD0018004075
:10212000001F4FF080730360001F21F00103036064
:10213000001F054B036014380260001F6FF002039C
:102140000360203870470000F91F0008002141613A
:102150008161017770470146D1E90502904201D1C2
:10216000012070470020FCE710B501464869401C7B
:102170001423B0FBF3F403FB14028869904201D1ED
:10218000012010BD0020FCE770B504460D46204636
:10219000FFF7E1FF08B1002070BDA069205C287046
:1021A000A069401C1421B0FBF1F201FB1200A061F8
:1021B0000120F1E72DE9F04107460D4616460024BF
:1021C00000BF07E029466D1C3846FFF7DDFF00B968
:1021D00002E0641CB442F5D300BF2046BDE8F081A4
:1021E00070B504460D462046FFF7BEFF08B100203B
:1021F00070BD606925546069401C1421B0FBF1F288
:1022000001FB120060610120F2E7000000B587B019
:1022100001210846FEF7D0FF01211020FEF7ECFF58
:10222000072209211F48FEF7E9F807220A211D4865
:10223000FEF7E4F802208DF818004FF4C060059016
:1022400005A91848FEF792F84FF4E13001900020FC
:10225000ADF810000C20ADF80E000020ADF80C0019
:10226000ADF80A00ADF8080001A90F48FFF740FBE0
:1022700001210D48FFF7E1FA012240F225510A48F9
:10228000FFF711FB25208DF8000001208DF80300D9
:1022900002208DF801008DF802006846FEF7F2F981
:1022A00007B000BD000002400010014000B587B03B
:1022B00001210820FEF780FF01214804FEF78CFF72
:1022C0002148FFF743FF072205212048FEF796F833
:1022D000072206211D48FEF791F802208DF818000C
:1022E0006020059005A91948FEF740F84FF4E13049
:1022F00001900020ADF810000C20ADF80E00002079
:10230000ADF80C00ADF80A00ADF8080001A91048BE
:10231000FFF7EEFA01210E48FFF78FFA012240F293
:1023200025510B48FFF7BFFA26208DF80000012049
:102330008DF8030002208DF801008DF80200684638
:10234000FEF7A0F907B000BD7C000020000C0240A1
:102350000044004001460A69D1E901309860D1E9A2
:10236000010358605068884201D18868506000209D
:1023700008611068401E10601068704700F1080185
:1023800041604FF0FF31816000F10801C1600161DF
:1023900000210160704700210161704710B50246BD
:1023A0000B685C1C0CB9106907E002F1080000E042
:1023B0004068446824689C42FAD944684C604C6880
:1023C000A160886041600A611468641C146010BDDB
:1023D00042684A6093688B609368596091600861B5
:1023E00003685B1C0360704700BFBF2080F3118847
:1023F000BFF34F8FBFF36F8F00BF03480068401CCF
:102400000149086070470000680000200648006825
:10241000401E054908600846006820B9002080F386
:10242000118800BF00BF70476800002070B50646E5
:102430003546D6B1083D2C460C496068096808400D
:1024400098B1206888B90949606809688843606064
:1024500000F008F906496068096808440449086002
:102460002046FFF77BFD00F055FA70BD64000020A8
:102470005C00002003484FF0E0214861072008611C
:10248000704700003F90020070B50446002544B13B
:1024900000F0E8F800212046FFF7B8FB00F03AFA18
:1024A00005463DB94FF0805003490860BFF34F8F98
:1024B000BFF36F8F70BD000004ED00E02DE9F04721
:1024C000044688464FF0000900F0CCF8164806682C
:1024D000206800EB08052068B04207D92068A842B0
:1024E0000BD9B54209D94FF0010906E02068A8428E
:1024F00001D8B54201D94FF001092560B9F1000FAB
:1025000003D0A81B0021FFF781FB00F003FA074668
:102510003FB94FF0805005490860BFF34F8FBFF3BC
:102520006F8FBDE8F08700002800002004ED00E078
:1025300070B50546FFF758FF15B92748006800E059
:1025400028460446201DFFF705FF78B9E06A00EB36
:102550008000224951F8200040B994F82C10012045
:1025600088401F49096881431D480160A06A18B16D
:1025700004F11800FFF7EEFE1A480068401C1949E4
:10258000086015480068844209D1211D1648FFF7EC
:102590001FFF16480068401C1449086009E01448F1
:1025A0000068401E124908602046FFF707FCFFF74D
:1025B00009FDFFF72BFF0F48006858B10648006877
:1025C000844207D14FF080500B490860BFF34F8F12
:1025D000BFF36F8F70BD0000140000201C050020A9
:1025E0002C00002040000020D80700202000002000
:1025F000240000203000002004ED00E01CB512484B
:1026000000210B464FF40072CDE900100FA11148D4
:1026100000F0BCF80446012C14D100BFBF2080F3A9
:102620001188BFF34F8FBFF36F8F00BF4FF0FF30A4
:10263000094908600120094908600020084908602C
:1026400000F080F81CBD00004800002049444C45C3
:10265000000000004D1E0008440000203000002053
:102660002800002002480068401C014908607047AB
:102670004C0000201248006818B101201149086080
:102680001DE000200F4908600F480068B0FA80F094
:10269000C0F11F0101EB81020C4B03EB8200426889
:1026A0005268426000F108024368934202D14268D6
:1026B000526842604268D268054B1A6000BF70479A
:1026C0004C000020380000202C0000201C050020B9
:1026D0001400002010B54FF47A7104A000F020F827
:1026E00041F2883105A000F01BF810BD41542B4386
:1026F000574D4F44453D320D0A00000041542B43D5
:10270000575341503D227A68616E67222C22313244
:10271000333435363738222C352C330D0A0000007F
:1027200070B504460D462046FDF7CCFDC6B23146D5
:102730002046FFF75DF8294601A0FFF74DF970BD6F
:102740004F4B000010B50E48006840F47F000C4964
:1027500008600846006840F07F400860FFF78AFE86
:10276000002008490860FDF73BFD0748006840F07D
:10277000404005490860FDF723FD002010BD000022
:1027800020ED00E06800002034EF00E02DE9FF4F6D
:1027900085B0804689461746DDE912ABB800FFF7E1
:1027A00037FC064656B14C20FFF732FC04460CB10C
:1027B000266304E03046FFF739FE00E000247CB1D8
:1027C0000020CDE900ABCDE902403A4649464046FB
:1027D000089BFFF74FFB2046FFF764FA012501E055
:1027E0004FF0FF35284609B0BDE8F08F0149086871
:1027F00070470000280000202DE9F04100273A48EA
:102800000068002863D139480068451C37480560D6
:102810008DB93748D0F800803648006834490860E0
:102820003448C0F8008034480068401C32490860D1
:10283000FFF7C8FB00BF3148006885423BD300BFAB
:102840002B480068006808B9012000E0002020B192
:102850004FF0FF30294908602CE025480068C06827
:10286000C4686668B54202D22448066022E0201D92
:10287000FFF770FDA06A18B104F11800FFF76AFDB8
:1028800094F82C10012088401D49096808431C4910
:102890000860E16A01EB81011A4A02EB8100211D07
:1028A000FFF796FD1849E06A0968C96A8842C7D3EC
:1028B0000127C5E700BF14480068C06A00EB80002C
:1028C000104951F82000012800D9012704E00F48E1
:1028D0000068401C0D4908600D48006800B10127E0
:1028E0003846BDE8F08100004C00002028000020A0
:1028F000180000201C0000203C00002044000020A4
:102900002C0000201C0500201400002034000020B2
:102910003800002070B500240026FFF765FD2E4822
:102920000068401E2C4908600846006800284FD106
:102930002A48006800284BD024E02948C068C468B1
:1029400004F11800FFF706FD201DFFF703FD94F8C2
:102950002C10012088402349096808432149086058
:10296000E16A01EB8101204A02EB8100211DFFF7A2
:102970002FFD1E49E06A0968C96A884202D3012016
:102980001B4908601648006808B9012000E00020D3
:102990000028D2D00CB1FFF715FB1648056865B1C9
:1029A00000BFFFF729FF10B10120114908606D1E1B
:1029B000002DF6D100200F4908600D48006838B19D
:1029C000012630070C490860BFF34F8FBFF36F8FAC
:1029D000FFF71CFD304670BD4C0000202400002095
:1029E000C40700202C0000201C050020140000203B
:1029F000380000203400002004ED00E0000000005A
:102A000000000000002F0000000007000700001475
:102A10007F147F1400242A7F2A1200626408132383
:102A200000364955225000000503000000001C221A
:102A30004100000041221C000014083E0814000858
:102A4000083E0808000000A0600000080808080808
:102A5000000060600000002010080402003E5149A0
:102A6000453E0000427F400000426151494600213E
:102A700041454B31001814127F1000274545453958
:102A8000003C4A49493000017109050300364949B3
:102A9000493600064949291E00003636000000006C
:102AA00056360000000814224100001414141414B7
:102AB0000000412214080002015109060032495960
:102AC000513E007C1211127C007F49494936003E7C
:102AD00041414122007F4141221C007F4949494137
:102AE000007F09090901003E4149497A007F080831
:102AF000087F0000417F4100002040413F01007FEE
:102B000008142241007F40404040007F020C027FB9
:102B1000007F0408107F003E4141413E007F0909CB
:102B20000906003E4151215E007F091929460046F1
:102B3000494949310001017F0101003F4040403FC8
:102B4000001F2040201F003F4038403F0063140812
:102B500014630007087008070061514945430000ED
:102B60007F41410000552A552A55000041417F0010
:102B70000004020102040040404040400000010205
:102B80000400002054545478007F484444380038EE
:102B90004444442000384444487F00385454541876
:102BA00000087E0901020018A4A4A47C007F080488
:102BB00004780000447D4000004080847D00007F58
:102BC000102844000000417F4000007C0418047875
:102BD000007C0804047800384444443800FC242471
:102BE00024180018242418FC007C08040408004859
:102BF0005454542000043F444020003C4040207C7A
:102C0000001C2040201C003C4030403C0044281068
:102C10002844001CA0A0A07C004464544C4414141C
:102C20001414141400000000000000000000000054
:102C30000000FC000000000002000000000C020C7C
:102C4000020000000000000090D0BCD0BC90000347
:102C5000000300001824FE448C0003020702010058
:102C60001824D8B04C80000300010201C038E438B9
:102C7000E00001020201020208060000000000005C
:102C800000000000000000F804020000000102043F
:102C9000000204F800000004020100009060F860E7
:102CA00090000000010000002020FC202000000017
:102CB0000100000000000000000008060000000005
:102CC0002020202020000000000000000000000064
:102CD00000000002000000000080601C02000403ED
:102CE00000000000F8040404F800010202020100E0
:102CF0000008FC00000000020302000018844424C5
:102D0000180003020202020008042424D800010271
:102D10000202010040B088FC8000000000030200B5
:102D20003C242424C400010202020100F824242CC3
:102D3000C0000102020201000C04E41C04000000B7
:102D400003000000D8242424D8000102020201005C
:102D500038444444F800000302020100000010005F
:102D60000000000002000000000020000000000041
:102D7000060000000020508804020000000001024C
:102D800090909090900000000000000000020488E5
:102D900050200002010000001804C42418000000A4
:102DA00002000000F804E494F800010202020200AC
:102DB00000E09CF0800002030000030204FC2424D5
:102DC000D800020302020100F80404040C0001020E
:102DD0000202010004FC0404F800020302020100E4
:102DE00004FC24740C0002030202030004FC24749B
:102DF0000C00020302000000F0080444CC40000173
:102E00000202010004FC2020FC0402030000030273
:102E10000404FC040400020203020200000404FC97
:102E2000040406040403000004FC24D00C04020380
:102E30000200030204FC0400000002030202020379
:102E4000FC3CC03CFC0003000300030004FC30C455
:102E5000FC04020302000300F8040404F800010269
:102E60000202010004FC24241800020302000000F6
:102E7000F8848404F80001020207050004FC2464BD
:102E80009800020302000302182424448C00030269
:102E9000020201000C04FC040C000002030200000A
:102EA00004FC0000FC04000102020100047C80E03C
:102EB0001C040000030000001CE03CE01C000003B8
:102EC00000030000049C609C040002030003020055
:102ED000041CE01C04000002030200000C84641CBB
:102EE00004000203020203000000FE0202000000D0
:102EF00007040400000E30C00000000000010200C2
:102F0000000202FE000000040407000000040204A6
:102F100000000000000000000000000000000808A1
:102F2000080808080000020000000000000000007F
:102F30000040A0A0C00000010202030204FC202007
:102F4000C00000030202010000C020206000000158
:102F50000202020000C02024FC0000010202030261
:102F600000C0A0A0C0000001020202000020F8245E
:102F700024040002030202000040A0A06020000719
:102F80000A0A0A0404FC2020C00002030200030213
:102F90000020E4000000000203020000000020E422
:102FA000000008080807000004FC80E0202002035D
:102FB000020003020404FC000000020203020200FB
:102FC000E020E020C00003000300030020E02020F8
:102FD000C00002030200030200C02020C000000164
:102FE0000202010020E02020C000080F0A020100B8
:102FF00000C02020E0000001020A0F0820E040206D
:1030000020000203020000000060A0A020000002D7
:10301000020203000020F82000000000010202006C
:1030200020E00020E00000010202030220E02080F6
:1030300060200000030100006080E0806000000369
:1030400000030000206080602000020300030200F3
:1030500020E0208060200808070100000020A06018
:103060002000000203020200000020DE0200000037
:1030700000070400000000FF00000000000F000037
:103080000002DE200000000407000000020102042C
:10309000040200000000000000000000000000002A
:1030A0000000000000000000000000F80000000028
:1030B000000000333000000000100C06100C060069
:1030C000000000000000000040C07840C0784000D0
:1030D000043F04043F040400007088FC0830000032
:1030E000001820FF211E0000F008F000E01800008A
:1030F00000211C031E211E0000F008887000000043
:103100001E2123241927211010160E000000000094
:103110000000000000000000000000E018040200B1
:10312000000000071820400000020418E000000022
:103130000040201807000000404080F08040400020
:103140000202010F01020200000000F00000000076
:103150000101011F0101010000000000000000004A
:1031600080B07000000000000000000000000000BF
:103170000001010101010101000000000000000048
:1031800000303000000000000000000080601804E3
:10319000006018060100000000E010080810E000C0
:1031A000000F102020100F00001010F80000000089
:1031B0000020203F202000000070080808887000D0
:1031C0000030282422213000003008888848300050
:1031D0000018202020110E000000C02010F8000070
:1031E00000070424243F240000F808888808080009
:1031F0000019212020110E0000E01088881800001E
:10320000000F112020110E0000380808C8380800EF
:103210000000003F0000000000708808088870006F
:10322000001C222121221C0000E010080810E000F0
:103230000000312222110F00000000C0C000000079
:10324000000000303000000000000080000000009E
:103250000000806000000000000080402010080096
:10326000000102040810200040404040404040005F
:10327000040404040404040000081020408000003A
:103280000020100804020100007048080808F0003F
:103290000000003036010000C030C828E810E0000F
:1032A0000718272423140B000000C038E00000009A
:1032B000203C23020227382008F888888870000004
:1032C000203F202020110E00C030080808083800D8
:1032D000071820202010080008F808080810E0004F
:1032E000203F202020100F0008F88888E8081000F0
:1032F000203F20202320180008F88888E8081000C4
:10330000203F200003000000C030080808380000FB
:1033100007182020221E020008F808000008F808FC
:10332000203F210101213F20000808F80808000083
:103330000020203F2020000000000808F8080800B6
:10334000C08080807F00000008F888C0281808002E
:10335000203F20012638200008F808000000000067
:10336000203F20202020300008F8F800F8F808005E
:10337000203F003F003F200008F830C00008F80858
:10338000203F200007183F00E01008080810E00068
:103390000F10202020100F0008F808080808F0007F
:1033A000203F210101010000E01008080810E000A2
:1033B0000F18242438504F0008F888888888700037
:1033C000203F2000030C30200070880808083800D7
:1033D0000038202121221C00180808F808081800CD
:1033E0000000203F2000000008F808000008F8084E
:1033F000001F202020201F000878880000C83808FF
:10340000000007380E010000F80800F80008F80076
:10341000033C0700073C0300081868808068180810
:1034200020302C03032C30200838C800C83808008E
:103430000000203F2000000010080808C8380800DD
:103440002038262120201800000000FE0202020081
:103450000000007F40404000000C30C00000000031
:10346000000000010638C00000020202FE00000059
:10347000004040407F0000000000040202020400FF
:10348000000000000000000000000000000000003C
:103490008080808080808080000202040000000024
:1034A000000000000000000000008080808000001C
:1034B0000019242222223F2008F80080800000000A
:1034C000003F112020110E000000008080800000CD
:1034D000000E112020201100000000808088F800DC
:1034E000000E112020103F2000008080808000000E
:1034F000001F222222221300008080F08888881872
:103500000020203F2020000000008080808080007C
:10351000006B94949493600008F800808080000011
:10352000203F210000203F200080989800000000EC
:103530000020203F2020000000000080989800001C
:1035400000C08080807F000008F80000808080003C
:10355000203F24022D302000000808F80000000061
:103560000020203F2020000080808080808080001C
:10357000203F20003F20003F8080008080800000AE
:10358000203F210000203F2000008080808000003C
:10359000001F202020201F0080800080800000006D
:1035A00080FFA12020110E0000000080808080009C
:1035B000000E112020A0FF8080808000808080008D
:1035C00020203F21200001000000808080808000BA
:1035D0000033242424241900008080E0808000002F
:1035E0000000001F2020000080800000008080007C
:1035F000001F202020103F208080800000808080DD
:1036000000010E300806010080800080008080806C
:103610000F300C030C300F00008080008080800091
:103620000020312E0E3120008080800000808080BC
:1036300080818E701806010000808080808080006C
:103640000021302C2221300000000000807C02028A
:1036500000000000003F404000000000FF000000AC
:1036600000000000FF0000000002027C800000005B
:103670000040403F00000000000601010202040477
:10368000000000000000000000000000000000003A
:10369000000000000000000000000000000000002A
:1036A000000000000000000000000000000000001A
:1036B00000F0F0F0000000000000000000017F01B9
:1036C0000000000000000000001C1C1C00000000A6
:1036D00000008060301C8C60301C0C00000000007A
:1036E00000000000000000000000000000000000DA
:1036F00000000000000000E00000000000E000000A
:103700000086E69F86868686E69F860000011F016A
:10371000010101011F010100000080C06020F820AC
:10372000E0C00000000003070C18FF70E1810000FA
:103730000000070F10107F100F070000806020604E
:1037400080000000E02000000F3020309F70DC3748
:103750001030C0000000100E0300071810180700FA
:103760000000C02020E0C0000000000080E01F3802
:10377000E88703C43C040000070F1810100B070D66
:103780001010080000808C4C380000000000000081
:103790000000000000000000000000000000000029
:1037A000000000000000000000000000000080E0B9
:1037B000300804000000000000FEFF0100000000CF
:1037C000000000000000030F182040000004083033
:1037D000E0800000000000000000000001FFFE008B
:1037E00000000000004020180F030000000000004F
:1037F000000000000000C0000000000000426666FB
:103800003C18FF183C666642000000000000030000
:103810000000000000000000000080000000000028
:10382000001010101010FF101010101000000000F9
:103830000000030000000000000000000000000085
:103840000000000000000000000000000000000078
:1038500000808C4C380000000000000000000000D8
:1038600000000000000000000010101010101010E8
:103870001010100000000000000000000000000018
:103880000000000000000000000000000000000038
:10389000000000000000000000001C1C1C000000D4
:1038A000000000000000000000000000E0380C00F4
:1038B0000000000080701C03000000000060380E53
:1038C0000100000000000000000080C060202060B7
:1038D000C080000000FEFF010000000001FFFE00AC
:1038E0000001070E181010180E070100000080805C
:1038F00080C0E000000000000000000000FFFF00AA
:103900000000000000001010101F1F101010000019
:103910000080402020202060C080000000030300C1
:10392000804020381F070000001C1A1918181818AA
:10393000181F00000080C020202060C08000000010
:10394000000303001010182FE780000000070F107D
:10395000101010180F070000000000000000C0E069
:10396000F000000000C0B088868180FFFF808000EA
:10397000000000000010101F1F1010000000E06089
:10398000606060606060000000003F100808081878
:10399000F0E0000000070B101010101C0F030000D7
:1039A000000080C040202020E0C0000000FCFF217B
:1039B0001008080818F0E0000001070C181010109B
:1039C000080F03000000C0E06060606060E060001D
:1039D000000003000000E0180700000000000000E5
:1039E000001F1F00000000000080C0602020202079
:1039F00060C080000087EF2C1818303068CF83003B
:103A000000070F0810101010180F07000000C0C0AA
:103A100020202020C0800000001F3F604040402048
:103A200010FFFE0000000C1C101010080F03000017
:103A30000000000000000000000000000000000086
:103A4000000E0E0E0000000000000000001C1C1CF8
:103A50000000000000000000000000000000000066
:103A600000000000000C0C0000000000000000003E
:103A70000058380000000000000000000000008036
:103A800040201000000010284482010000000000C7
:103A90000000000000000102040810000000000007
:103AA000000000000000000000848484848484847A
:103AB000848484000000000000000000000000007A
:103AC0000000102040800000000000000000000006
:103AD00000000182442810000000100804020100C8
:103AE0000000000000C020201010101030E0C000C6
:103AF0000003030000F010080C07030000000000A2
:103B00001C1C1C0000000000000000C040602020C1
:103B10002040C00000FCFF01F00E03C1FE03807FC7
:103B20000001070E08111110110904020000000025
:103B300080E0E000000000000000807C4340477F00
:103B4000F880000010181F1000000000131F1C1048
:103B500020E0E02020202060C080000000FFFF1057
:103B6000101010182FE78000101F1F1010101010D9
:103B7000180F0700000080C0402020202060E000D7
:103B800000FCFF0100000000000001000001070E22
:103B9000181010100804030020E0E020202020402E
:103BA000C080000000FFFF000000000001FFFE00D9
:103BB000101F1F10101018080E07010020E0E02051
:103BC000202020202060800000FFFF101010107CBB
:103BD00000000000101F1F10101010101018060019
:103BE00020E0E020202020206060800000FFFF1007
:103BF0001010107C00000100101F1F1000000000BA
:103C000000000000000080C06020202040E0000094
:103C100000FCFF0100004040C0C140400001070E11
:103C2000181010100F0F000020E0E020000000002E
:103C300020E0E02000FFFF101010101010FFFF0028
:103C4000101F1F1000000000101F1F100000202078
:103C500020E0E020202000000000000000FFFF0026
:103C60000000000000001010101F1F1010100000B6
:103C700000000000202020E0E020202000000000C4
:103C8000000000FFFF0000000060E0808080C07F37
:103C90003F00000020E0E020000020A06020200085
:103CA00000FFFF30187CE3C000000000101F1F1051
:103CB000000001131F1C181020E0E020000000008D
:103CC0000000000000FFFF000000000000000000F6
:103CD000101F1F10101010101018060020E0E0E058
:103CE00000000000E0E0E02000FF013FFEC0E01E19
:103CF00001FFFF00101F1000031F0300101F1F1003
:103D000020E0E0C0000000000020E02000FF0003F1
:103D1000071C78E08000FF00101F1000000000006A
:103D2000030F1F00000080C060202060C0800000E2
:103D300000FEFF010000000000FFFE000001070E72
:103D4000181010180C07010020E0E020202020208F
:103D500060C0800000FFFF2020202020301F0F00C7
:103D6000101F1F100000000000000000000080C0B5
:103D700060202060C080000000FEFF010000000005
:103D800000FFFE000001070E1111133C7C672100AB
:103D900020E0E0202020202060C0800000FFFF10F5
:103DA0001030F0D0080F0700101F1F100000000394
:103DB0000F1C10100080C060202020204040E00038
:103DC00000070F0C1818303060E08100001F0C084D
:103DD00010101010180F07008060202020E0E02055
:103DE000202060800100000000FFFF0000000001B3
:103DF00000000000101F1F100000000020E0E02065
:103E0000000000000020E02000FFFF000000000094
:103E10000000FF0000070F18101010101008070016
:103E20002060E0E02000000020E060200000077F2C
:103E3000F88000807C03000000000000071F1C07C2
:103E40000000000020E0E02000E0E0200020E02072
:103E50000007FFF8E01FFFFCE01F00000000031F49
:103E60000300011F03000000002060E0A00000200C
:103E7000E0602000000000038F7CF8C60100000015
:103E80000010181E130001171F1810002060E0E03A
:103E90002000000020E06020000001073EF8E0184C
:103EA0000700000000000010101F1F10100000008D
:103EB00000806020202020A0E0E020000000000022
:103EC000C0F03E0F0300000000101C1F1710101060
:103ED000101806000000000000FC040404040400A4
:103EE0000000000000FF00000000000000000000D3
:103EF000007F404040404000000010E00000000013
:103F00000000000000000000031C608000000000B2
:103F100000000000000000030C708000000004049A
:103F2000040404FC0000000000000000000000FF8A
:103F300000000000000040404040407F00000000C2
:103F400000000010080C040C081000000000000025
:103F50000000000000000000000000000000000061
:103F60000000000000000000000000000000000051
:103F70000000000000000000000000008080808041
:103F80008080808080808080000000040408080019
:103F90000000000000000000000000000000000021
:103FA0000000000000000000000000000000000011
:103FB0000000000000000000000098D844642424A1
:103FC000FCF80000000F1F18101010081F1F101819
:103FD0000020E0F000000000000000000000FFFFF3
:103FE000180804040CF8F00000001F0F181010103F
:103FF000180F030000000000000000000000000097
:1040000000E0F8180404043C3800000000030F0C22
:104010001010101008060000000000000000002032
:10402000E0F0000000E0F81C04040408FFFF0000BA
:1040300000030F18101010081F0F080000000000E8
:1040400000000000000000000000E0F84844444484
:104050004C7870000000030F0C18101010080400BA
:104060000000000080C0602020E0C00000040404C4
:10407000FFFF040404040000000010101F1F1010B4
:104080001000000000000000000000000000000020
:10409000000070F88C04048CF874040C007076CF67
:1040A0008D8D8D89C87870000020E0F00000000040
:1040B000000000000000FFFF08040404FCF80000FA
:1040C00000101F1F100000101F1F10000000000034
:1040D00000606000000000000000040404FCFC001C
:1040E0000000000000001010101F1F101010000032
:1040F0000000000000000060600000000000000000
:10410000040404FCFC0000000000C0C08080C07FEC
:104110003F0000000020E0F0000000000000000070
:104120000000FFFF80C0F41C0404000000101F1FEB
:104130001100031F1C1010000000202020E0F000E0
:10414000000000000000000000FFFF000000000071
:1041500000001010101F1F101010000000000000C1
:10416000000000000000000004FCFC0804FCFC0847
:1041700004FCFC00101F1F10001F1F10001F1F1049
:104180000000000000000000000000000004FCFC33
:1041900008080404FCF8000000101F1F10000010A5
:1041A0001F1F1000000000000000000000000000C1
:1041B00000E0F0180C04040C18F0E00000030F0CF1
:1041C000101010100C0F0300000000000000000091
:1041D000000000000004FCFC080404040CF8F000DB
:1041E0000080FFFF889010101C0F030000000000EB
:1041F000000000000000000000E0F81C04040408B7
:10420000F8FC000000030F1810109088FFFF8000DA
:10421000000000000000000000000000040404FC96
:10422000FC100804040C0C001010101F1F101010BC
:10423000000000000000000000000000000000007E
:1042400000003078CCC48484840C1C0000001E184C
:1042500010101011190F06000000000000C000002F
:104260000000000000040404FFFF04040400000038
:10427000000000000F1F1010100C000000000000D4
:1042800000000000000000000004FCFE000000042C
:10429000FCFE000000000F1F181010081F0F080080
:1042A00000000000000000000000000000040C3CC2
:1042B000FCC40000C43C0C0400000000010F1E0EF2
:1042C00001000000000000000000000000000000ED
:1042D000043CFCC400E47CFC84807C040000071FD8
:1042E000070000071F07000000000000000000009A
:1042F000000000000004041C7CE4C0341C04040022
:104300000010101C1601131F1C18100000000000E4
:10431000000000000000000000040C3CFCC400C4CD
:104320003C0404000000C080C1370E010000000002
:1043300000000000000000000000000000001C045D
:1043400004C4F47C1C0400000000101C1F17111092
:1043500010180E0000000000000000F80C0400001F
:1043600000000000001028EF000000000000000026
:104370000000003F60400000000000000000FF005F
:1043800000000000000000000000FF00000000002E
:10439000000000000000FF00000000000000040C0E
:1043A000F80000000000000000000000EF281000EE
:1043B00000000000000040603F000000000000001E
:1043C0000018060202040810202030080000000037
:1043D00000000000000000000000000000000000DD
:1043E00000000000D6C7C4DCBCD2BED3D4B6B3CC68
:1043F000B7E7C9C8B5C6B9E2B8D0D6AACFB5CDB36C
:10440000C1ACBDD3B6CFBFAAB7FECEF1C6F7B4F2EA
:10441000BFAAB7E7C9C8D2BBB5B2B6FEB5B2C8FD30
:10442000B5B5B6AFC1A6BAF4CEFCB5C6D6F7B2CB19
:10443000B5A5B9D8B1D55769466900109453321E55
:10444000325210007E4242427E0000000000FF49CE
:10445000494949494949FF0000000008CC4A4948F8
:104460004ACC18007F88888482E00000FF12125234
:10447000927F00007E88888482E000102C2424A48F
:10448000A465A624242424A4340C004049492924EA
:104490001452897F040A11102020000000FE92921D
:1044A000929292F29292929E80800040300F00FC95
:1044B00044444447444444FC000000404042CC0093
:1044C0002022E22222E222222000000080403F40FF
:1044D000A0988780809FA0A0BC80002424A4FE23F5
:1044E00022003E22222222223E0000080601FF0175
:1044F00006404949497F49494941000000FE0212EE
:1045000022C202C23202FE0000000080601F0020B2
:10451000100C030C30000F3040F8000000FC242485
:1045200024252624242424243C000040300F211577
:1045300049817F00211549817F0000807000FF20A4
:104540001004040404FC0404040400806018070838
:1045500030000040807F000000000040404244588E
:10456000C0407F40C05048464040008080402018F6
:10457000070000003F4040404078000000FC04D4A9
:10458000545454D4047F84C5360400886601006303
:10459000828292AB8482C10224CF0020180F08F8D7
:1045A00008080000FC040404FC00008141310D03F4
:1045B0000D7101003F1010103F0000000022322A50
:1045C000A6A2622111098101000000004222130B02
:1045D00042827E02020A12234600002030AC633081
:1045E0000088C8A8998E88A8C8880022672212125D
:1045F0008040300F00003F40407100404042CC00FE
:104600000444645C47F444444404000040201F20F8
:1046100044444444447F4444444400101010FF1078
:1046200050445465C64464544440000444827F01AD
:1046300082824A562322524E82020000FC2024A885
:10464000FFA82400FC4444C4424000003F22212033
:104650002F20A3601F0000FF00000080828282FEE6
:104660008282828282FE8282828000008040300FBD
:104670000000000000FF00000000000000FE2222F9
:1046800022FE00FE828292A29E000080601F0242F3
:10469000827F00FF402F102C438000000090884C48
:1046A00057A42454548C840000000001018042224D
:1046B0001A07024282423E0101010080809E9292CE
:1046C000929EE0809EB2D2929E80000808F494925E
:1046D00092F10001F2929494F80800101010FF106B
:1046E0009004040404FC04040404000444827F01D4
:1046F00000000040807F000000000080828282FE77
:104700008282828282FE8282828000008040300F1C
:104710000000000000FF00000000000000FE021288
:1047200022C202C23202FE0000000080601F002090
:10473000100C030C30000F3040F8000000FC242463
:1047400024252624242424243C000040300F211555
:1047500049817F00211549817F0000808080808011
:104760008080808080808080808000000000000049
:1047700000000000000000000000001010D0FF90BA
:104780001040425C407F4050CE0000040300FF0018
:104790000140444444444444FF0000000008080829
:1047A0000808080808080808000000101010101079
:1047B00010101010101010101010001010D0FF90DA
:1047C0001040425C407F4050CE0000040300FF00D8
:1047D0000140444444444444FF0000000484848471
:1047E0008484848484848484040000202020202005
:1047F00020202020202020202020001010D0FF90FA
:104800001040425C407F4050CE0000040300FF0097
:104810000140444444444444FF00004044C44444F0
:1048200044401010FF101010F00000103C13101442
:10483000B840300E014080403F00000010101010C2
:1048400010FF1010101010F0000000008040201821
:10485000060100204080403F00000000FC0404FCF2
:104860000004146404FE0243320000000F04040F2D
:1048700000010141817F010101010000FC0404FCF1
:104880000202FE0202625A46C00000000F04044FFA
:10489000308E814628102846818000807000FF20DD
:1048A0001004040404FC04040404008060180708D5
:1048B00030000040807F0000000000000808080869
:1048C0000809FA080808080808000040404141416A
:1048D00041417F4141414141404000040444C44FB3
:1048E0004444C424242FB424040400404424241544
:1048F0000C04FE040C1524244440000000F8494A2E
:104900004C48F8484C4A49F80000001010131212A5
:104910001212FF12121212131010000000101116C2
:104920001010F0101014131000000081814141217B
:10493000110D030D1121414181810000F801222058
:104940002222A2FA22222202FE000000FF00080416
:104950000211201F000040807F000008F800F800CE
:10496000F8080000033E013E0300000000000000C4
:104970000000000000000000000000008098980087
:104980000000000020203F20200000000000000068
:10499000000000000000000000000008F88888E81F
:1049A000081000203F20000300000000000000006D
:1049B0000000000000000000000000008098980047
:1049C0000000000020203F20200000000000000028
:1049D0000000000000000000000000000000C08097
:1049E000808080808080FC84808080808080C0C0C7
:1049F000000000000000FF7F404040404040FF407A
:104A0000404040404040FF7F0000000000000000A8
:104A10000000000000007F700000000000000000A7
:104A20000000000000000000000000000000000086
:104A30000000FCF800000000000000000000000082
:104A400000000000000000FFFE020202020202025B
:104A50000202FFFF020202020202020202FF030040
:104A6000000000000000001F1F04040404040404EC
:104A70000404FFFF0404040404040404041F0000ED
:104A80000000000000000000000000000000000026
:104A900000007F3F00000000000000000000000058
:104AA0000000000000000000000000000000000006
:104AB00000000000000000000000000000000000F6
:104AC000F8F8F0F070200000000000000000000086
:104AD00000000000000000000000000000000000D6
:104AE0000000000000000000000000800000000046
:104AF00000000000000000000000000000000000B6
:104B0000FFFFFFFF000000000000000000000000A9
:104B10000000000000000080800000000000000095
:104B2000000000000000000000000000FFFFFE0683
:104B30000606060606060606060606060606060615
:104B4000FFFFFFFF06060606060606060606060621
:104B5000060606060606FFFFFFFF0702000000002C
:104B6000000000000000000000000000FFFFFF0048
:104B70000000000000000000000000000000000035
:104B8000FFFFFFFF00000000000000000000000029
:104B9000000000000000FFFFFFFF00000000000019
:104BA000000000000000000000000000FFFFFF18F0
:104BB0001818181818181818181818181818181875
:104BC000FFFFFFFF181818181818181818181818C9
:104BD000181818181818FFFFFFFF00000000000049
:104BE00000000000000000000000000201010000C1
:104BF00000000000000000000000000000000000B5
:104C0000FFFFFFFF000000000000000000000000A8
:104C10000000000000000101000000000000000092
:104C20000000000000000000000000000000000084
:104C30000000000000000000000000000000000074
:104C4000FFFFFFFF00000000000000000000000068
:104C50000000000000000000000000000000000054
:104C60000000000000000000000000000000000044
:104C70000000000000000000000000000000000034
:104C80001F1F0F0F000000000000000000000000C8
:104C90000000000000000000000000000000000014
:104CA00000000000C44C0008000000207C00000050
:104CB000281A0008404D00087C000020849B00005A
:104CC000381A00080000000000000000000000008A
:104CD00000000000000000000000000000000000D4
:104CE00000000000000000000000000000000000C4
:104CF00000000000000000000000000000000000B4
:104D000000000000000000000000000000000000A3
:104D10000000000000000000000000000000000093
:104D2000000000000000000000000000AAAAAAAADB
:104D30000000000001020304010203040607080941
:040000050800018965
:00000001FF
